:020000040000fa
:10000000f07f0020fd010000e1020000e10200009d
:1000100000000000000000000000000000000000e0
:10002000000000000000000000000000e1020000ed
:100030000000000000000000e1020000e1020000fa
:10004000e1020000e1020000e1020000e102000024
:10005000e1020000e1020000e1020000e102000014
:10006000e1020000e1020000e1020000e102000004
:10007000e1020000e1020000e1020000e1020000f4
:10008000e1020000e1020000e1020000e1020000e4
:10009000e1020000e1020000e1020000e1020000d4
:1000a000e1020000e1020000e1020000e1020000c4
:020000040000fa
:1000b000f8b5c046f8bc08bc9e46704779020000ff
:1000c000f8b5c046f8bc08bc9e4670475102000017
:020000040000fa
:1000d0000021f0b5174b184a934208d30027174a5e
:1000e00013685168002b05d1002903d1f0bd1970a8
:1000f0000133f1e7100095680c305c18002d16d024
:100100000b25ed1a5219a3420ad10b00032213400a
:100110005a1e934189085918890040180200dfe7e8
:100120005d1cae5c1e702b00ede71f700133a34217
:10013000fbd1f3e700000020000000204001000098
:020000040000fa
:100140007400002004000000010000000000000016
:10015000500000201c000000000000006c00002087
:10016000040000000000000000000020500000001b
:1001700000000000700000200400000000000000eb
:1001800078000020040000000100000000000000d2
:10019000000000000000000044444444444444443f
:020000040000fa
:1001a00000230e4a10b513600d4a13600d4a136008
:1001b0000d4a13600d4a13600d4a536213610133f7
:1001c000936000f08ef800f08cf80a4c0a4b9c42c9
:1001d00000d310bd08cc9847f8e7c0467000002057
:1001e0000c00002008000020000000200400002077
:0c01f00010000020bc000000c000000057
:020000040000fa
:1001fc000d4b002b00d098470c4b002b00d0984790
:10020c0000f064f80a4bff2293430a4a93600a4bae
:10021c0098470a4b002b00d09847094b002b00d075
:10022c00984700f033f8fee70000000000000000e3
:10023c000000000000ed00e0a10100000000000043
:04024c0000000000ae
:020000040000fa
:1002500010b5064c2378002b07d1054b002b02d09c
:10026000044800e000bf0123237010bd50000020af
:100270000000000000000000044b10b5002b03d06c
:100280000349044800e000bf10bdc0460000000064
:10029000540000200000000080b584b000af14239b
:1002a000fb601e23bb60ba68fb681100180000f0f9
:1002b00005f803007b607b68fb60fee780b584b0d7
:1002c00000af786039607a683b68d318fb60fb68e0
:0802d0001800bd4604b080bd1a
:020000040000fa
:0802d80010b5fff7f9fe10bd9f
:020000040000fa
:0202e000fee737
:020000040000fa
:0202e200704763
:00000001FF
